{
  "_format": "hh-sol-artifact-1",
  "contractName": "Escrow",
  "sourceName": "contracts/Escrow.sol",
  "abi": [
    {
      "inputs": [
        {
          "internalType": "address",
          "name": "_leander",
          "type": "address"
        },
        {
          "internalType": "address payable",
          "name": "_seller",
          "type": "address"
        },
        {
          "internalType": "address",
          "name": "_nftAddress",
          "type": "address"
        },
        {
          "internalType": "address",
          "name": "_inspector",
          "type": "address"
        }
      ],
      "stateMutability": "nonpayable",
      "type": "constructor"
    },
    {
      "inputs": [
        {
          "internalType": "uint256",
          "name": "",
          "type": "uint256"
        },
        {
          "internalType": "address",
          "name": "",
          "type": "address"
        }
      ],
      "name": "approval",
      "outputs": [
        {
          "internalType": "bool",
          "name": "",
          "type": "bool"
        }
      ],
      "stateMutability": "view",
      "type": "function"
    },
    {
      "inputs": [
        {
          "internalType": "uint256",
          "name": "_nftId",
          "type": "uint256"
        }
      ],
      "name": "approveSale",
      "outputs": [],
      "stateMutability": "nonpayable",
      "type": "function"
    },
    {
      "inputs": [
        {
          "internalType": "uint256",
          "name": "",
          "type": "uint256"
        }
      ],
      "name": "buyer",
      "outputs": [
        {
          "internalType": "address",
          "name": "",
          "type": "address"
        }
      ],
      "stateMutability": "view",
      "type": "function"
    },
    {
      "inputs": [
        {
          "internalType": "uint256",
          "name": "_nftId",
          "type": "uint256"
        }
      ],
      "name": "depositEarnest",
      "outputs": [],
      "stateMutability": "payable",
      "type": "function"
    },
    {
      "inputs": [
        {
          "internalType": "uint256",
          "name": "",
          "type": "uint256"
        }
      ],
      "name": "escrowAmount",
      "outputs": [
        {
          "internalType": "uint256",
          "name": "",
          "type": "uint256"
        }
      ],
      "stateMutability": "view",
      "type": "function"
    },
    {
      "inputs": [
        {
          "internalType": "uint256",
          "name": "_nftId",
          "type": "uint256"
        }
      ],
      "name": "finalizeSales",
      "outputs": [],
      "stateMutability": "nonpayable",
      "type": "function"
    },
    {
      "inputs": [],
      "name": "getBalance",
      "outputs": [
        {
          "internalType": "uint256",
          "name": "",
          "type": "uint256"
        }
      ],
      "stateMutability": "view",
      "type": "function"
    },
    {
      "inputs": [
        {
          "internalType": "uint256",
          "name": "",
          "type": "uint256"
        }
      ],
      "name": "inspectionPassed",
      "outputs": [
        {
          "internalType": "bool",
          "name": "",
          "type": "bool"
        }
      ],
      "stateMutability": "view",
      "type": "function"
    },
    {
      "inputs": [],
      "name": "inspector",
      "outputs": [
        {
          "internalType": "address",
          "name": "",
          "type": "address"
        }
      ],
      "stateMutability": "view",
      "type": "function"
    },
    {
      "inputs": [
        {
          "internalType": "uint256",
          "name": "",
          "type": "uint256"
        }
      ],
      "name": "isListed",
      "outputs": [
        {
          "internalType": "bool",
          "name": "",
          "type": "bool"
        }
      ],
      "stateMutability": "view",
      "type": "function"
    },
    {
      "inputs": [],
      "name": "lender",
      "outputs": [
        {
          "internalType": "address",
          "name": "",
          "type": "address"
        }
      ],
      "stateMutability": "view",
      "type": "function"
    },
    {
      "inputs": [
        {
          "internalType": "uint256",
          "name": "_nftId",
          "type": "uint256"
        },
        {
          "internalType": "uint256",
          "name": "_purchasePrice",
          "type": "uint256"
        },
        {
          "internalType": "uint256",
          "name": "_escrowAmount",
          "type": "uint256"
        },
        {
          "internalType": "address",
          "name": "_buyer",
          "type": "address"
        }
      ],
      "name": "list",
      "outputs": [],
      "stateMutability": "nonpayable",
      "type": "function"
    },
    {
      "inputs": [],
      "name": "nftAddress",
      "outputs": [
        {
          "internalType": "address",
          "name": "",
          "type": "address"
        }
      ],
      "stateMutability": "view",
      "type": "function"
    },
    {
      "inputs": [
        {
          "internalType": "uint256",
          "name": "",
          "type": "uint256"
        }
      ],
      "name": "purchasePrice",
      "outputs": [
        {
          "internalType": "uint256",
          "name": "",
          "type": "uint256"
        }
      ],
      "stateMutability": "view",
      "type": "function"
    },
    {
      "inputs": [],
      "name": "seller",
      "outputs": [
        {
          "internalType": "address payable",
          "name": "",
          "type": "address"
        }
      ],
      "stateMutability": "view",
      "type": "function"
    },
    {
      "inputs": [
        {
          "internalType": "uint256",
          "name": "_nftId",
          "type": "uint256"
        },
        {
          "internalType": "bool",
          "name": "_passed",
          "type": "bool"
        }
      ],
      "name": "updateInspectionStatus",
      "outputs": [],
      "stateMutability": "nonpayable",
      "type": "function"
    },
    {
      "stateMutability": "payable",
      "type": "receive"
    }
  ],
  "bytecode": "0x60806040523480156200001157600080fd5b5060405162001232380380620012328339818101604052810190620000379190620001f3565b81600360006101000a81548173ffffffffffffffffffffffffffffffffffffffff021916908373ffffffffffffffffffffffffffffffffffffffff160217905550836000806101000a81548173ffffffffffffffffffffffffffffffffffffffff021916908373ffffffffffffffffffffffffffffffffffffffff16021790555082600160006101000a81548173ffffffffffffffffffffffffffffffffffffffff021916908373ffffffffffffffffffffffffffffffffffffffff16021790555080600260006101000a81548173ffffffffffffffffffffffffffffffffffffffff021916908373ffffffffffffffffffffffffffffffffffffffff1602179055505050505062000265565b600080fd5b600073ffffffffffffffffffffffffffffffffffffffff82169050919050565b6000620001768262000149565b9050919050565b620001888162000169565b81146200019457600080fd5b50565b600081519050620001a8816200017d565b92915050565b6000620001bb8262000149565b9050919050565b620001cd81620001ae565b8114620001d957600080fd5b50565b600081519050620001ed81620001c2565b92915050565b6000806000806080858703121562000210576200020f62000144565b5b6000620002208782880162000197565b94505060206200023387828801620001dc565b9350506040620002468782880162000197565b9250506060620002598782880162000197565b91505092959194509250565b610fbd80620002756000396000f3fe6080604052600436106100f75760003560e01c80639aa7b8101161008a578063e740f77011610059578063e740f7701461035b578063ed2cee9e14610377578063f44e114f146103a2578063fcce4883146103cb576100fe565b80639aa7b810146102a15780639d0e5fd6146102ca578063b848de35146102f3578063bcead63e14610330576100fe565b80635bf8633a116100c65780635bf8633a146101bf5780635d19e56c146101ea5780635eed5fff1461022757806377fbc4ae14610264576100fe565b806308551a531461010357806312065fe01461012e57806314a72feb146101595780634dd4acaf14610182576100fe565b366100fe57005b600080fd5b34801561010f57600080fd5b50610118610408565b6040516101259190610b77565b60405180910390f35b34801561013a57600080fd5b5061014361042e565b6040516101509190610bab565b60405180910390f35b34801561016557600080fd5b50610180600480360381019061017b9190610bf7565b610436565b005b34801561018e57600080fd5b506101a960048036038101906101a49190610bf7565b6104a2565b6040516101b69190610c45565b60405180910390f35b3480156101cb57600080fd5b506101d46104d5565b6040516101e19190610c45565b60405180910390f35b3480156101f657600080fd5b50610211600480360381019061020c9190610bf7565b6104fb565b60405161021e9190610bab565b60405180910390f35b34801561023357600080fd5b5061024e60048036038101906102499190610bf7565b610513565b60405161025b9190610c7b565b60405180910390f35b34801561027057600080fd5b5061028b60048036038101906102869190610bf7565b610533565b6040516102989190610bab565b60405180910390f35b3480156102ad57600080fd5b506102c860048036038101906102c39190610cc2565b61054b565b005b3480156102d657600080fd5b506102f160048036038101906102ec9190610d55565b610720565b005b3480156102ff57600080fd5b5061031a60048036038101906103159190610d95565b6107df565b6040516103279190610c7b565b60405180910390f35b34801561033c57600080fd5b5061034561080e565b6040516103529190610c45565b60405180910390f35b61037560048036038101906103709190610bf7565b610832565b005b34801561038357600080fd5b5061038c6108f8565b6040516103999190610c45565b60405180910390f35b3480156103ae57600080fd5b506103c960048036038101906103c49190610bf7565b61091e565b005b3480156103d757600080fd5b506103f260048036038101906103ed9190610bf7565b610b16565b6040516103ff9190610c7b565b60405180910390f35b600160009054906101000a900473ffffffffffffffffffffffffffffffffffffffff1681565b600047905090565b60016009600083815260200190815260200160002060003373ffffffffffffffffffffffffffffffffffffffff1673ffffffffffffffffffffffffffffffffffffffff16815260200190815260200160002060006101000a81548160ff02191690831515021790555050565b60076020528060005260406000206000915054906101000a900473ffffffffffffffffffffffffffffffffffffffff1681565b600360009054906101000a900473ffffffffffffffffffffffffffffffffffffffff1681565b60066020528060005260406000206000915090505481565b60086020528060005260406000206000915054906101000a900460ff1681565b60056020528060005260406000206000915090505481565b600160009054906101000a900473ffffffffffffffffffffffffffffffffffffffff1673ffffffffffffffffffffffffffffffffffffffff163373ffffffffffffffffffffffffffffffffffffffff16146105db576040517f08c379a00000000000000000000000000000000000000000000000000000000081526004016105d290610e32565b60405180910390fd5b600360009054906101000a900473ffffffffffffffffffffffffffffffffffffffff1673ffffffffffffffffffffffffffffffffffffffff166323b872dd3330876040518463ffffffff1660e01b815260040161063a93929190610e52565b600060405180830381600087803b15801561065457600080fd5b505af1158015610668573d6000803e3d6000fd5b5050505060016004600086815260200190815260200160002060006101000a81548160ff021916908315150217905550826005600086815260200190815260200160002081905550816006600086815260200190815260200160002081905550806007600086815260200190815260200160002060006101000a81548173ffffffffffffffffffffffffffffffffffffffff021916908373ffffffffffffffffffffffffffffffffffffffff16021790555050505050565b600260009054906101000a900473ffffffffffffffffffffffffffffffffffffffff1673ffffffffffffffffffffffffffffffffffffffff163373ffffffffffffffffffffffffffffffffffffffff16146107b0576040517f08c379a00000000000000000000000000000000000000000000000000000000081526004016107a790610efb565b60405180910390fd5b806008600084815260200190815260200160002060006101000a81548160ff0219169083151502179055505050565b60096020528160005260406000206020528060005260406000206000915091509054906101000a900460ff1681565b60008054906101000a900473ffffffffffffffffffffffffffffffffffffffff1681565b806007600082815260200190815260200160002060009054906101000a900473ffffffffffffffffffffffffffffffffffffffff1673ffffffffffffffffffffffffffffffffffffffff163373ffffffffffffffffffffffffffffffffffffffff16146108d4576040517f08c379a00000000000000000000000000000000000000000000000000000000081526004016108cb90610f67565b60405180910390fd5b60066000838152602001908152602001600020543410156108f457600080fd5b5050565b600260009054906101000a900473ffffffffffffffffffffffffffffffffffffffff1681565b6008600082815260200190815260200160002060009054906101000a900460ff1661094857600080fd5b6009600082815260200190815260200160002060006007600084815260200190815260200160002060009054906101000a900473ffffffffffffffffffffffffffffffffffffffff1673ffffffffffffffffffffffffffffffffffffffff1673ffffffffffffffffffffffffffffffffffffffff16815260200190815260200160002060009054906101000a900460ff166109e257600080fd5b600960008281526020019081526020016000206000600160009054906101000a900473ffffffffffffffffffffffffffffffffffffffff1673ffffffffffffffffffffffffffffffffffffffff1673ffffffffffffffffffffffffffffffffffffffff16815260200190815260200160002060009054906101000a900460ff16610a6b57600080fd5b6009600082815260200190815260200160002060008060009054906101000a900473ffffffffffffffffffffffffffffffffffffffff1673ffffffffffffffffffffffffffffffffffffffff1673ffffffffffffffffffffffffffffffffffffffff16815260200190815260200160002060009054906101000a900460ff16610af357600080fd5b6005600082815260200190815260200160002054471015610b1357600080fd5b50565b60046020528060005260406000206000915054906101000a900460ff1681565b600073ffffffffffffffffffffffffffffffffffffffff82169050919050565b6000610b6182610b36565b9050919050565b610b7181610b56565b82525050565b6000602082019050610b8c6000830184610b68565b92915050565b6000819050919050565b610ba581610b92565b82525050565b6000602082019050610bc06000830184610b9c565b92915050565b600080fd5b610bd481610b92565b8114610bdf57600080fd5b50565b600081359050610bf181610bcb565b92915050565b600060208284031215610c0d57610c0c610bc6565b5b6000610c1b84828501610be2565b91505092915050565b6000610c2f82610b36565b9050919050565b610c3f81610c24565b82525050565b6000602082019050610c5a6000830184610c36565b92915050565b60008115159050919050565b610c7581610c60565b82525050565b6000602082019050610c906000830184610c6c565b92915050565b610c9f81610c24565b8114610caa57600080fd5b50565b600081359050610cbc81610c96565b92915050565b60008060008060808587031215610cdc57610cdb610bc6565b5b6000610cea87828801610be2565b9450506020610cfb87828801610be2565b9350506040610d0c87828801610be2565b9250506060610d1d87828801610cad565b91505092959194509250565b610d3281610c60565b8114610d3d57600080fd5b50565b600081359050610d4f81610d29565b92915050565b60008060408385031215610d6c57610d6b610bc6565b5b6000610d7a85828601610be2565b9250506020610d8b85828601610d40565b9150509250929050565b60008060408385031215610dac57610dab610bc6565b5b6000610dba85828601610be2565b9250506020610dcb85828601610cad565b9150509250929050565b600082825260208201905092915050565b7f4f6e6c792053656c6c65722063616e206c69737420612050726f706572747900600082015250565b6000610e1c601f83610dd5565b9150610e2782610de6565b602082019050919050565b60006020820190508181036000830152610e4b81610e0f565b9050919050565b6000606082019050610e676000830186610c36565b610e746020830185610c36565b610e816040830184610b9c565b949350505050565b7f4f6e6c7920496e73706563746f722063616e206c69737420612050726f70657260008201527f7479000000000000000000000000000000000000000000000000000000000000602082015250565b6000610ee5602283610dd5565b9150610ef082610e89565b604082019050919050565b60006020820190508181036000830152610f1481610ed8565b9050919050565b7f4f6e6c792042757965722063616e206c69737420612050726f70657274790000600082015250565b6000610f51601e83610dd5565b9150610f5c82610f1b565b602082019050919050565b60006020820190508181036000830152610f8081610f44565b905091905056fea26469706673582212205f8b67fa606a506b77863819eb9b78a74029d7ddfce0f260a9404ed71f1d387e64736f6c63430008110033",
  "linkReferences": {},
  "deployedLinkReferences": {}
}